03300000        2011340883000103400400000177808                         BITMAX TELECOM LTDA           BANCO SANTANDER                         122112022      000001040                                                                          
03300011R01  030 2011340883000103                    400400000177808     BITMAX TELECOM LTDA           mensagem_1                              mensagem_2                              0000000122112022                                         
0330001300001P 014004501300156260130015626  0022119369126512  123            3011202200000000000600000000 04N22112022230112022000000000000001000000000000000000000000000000000000000000000000000000                         000200000           
0330001300002Q 011000008948842471WARGAS DELMONDES TEIXEIRA               Rua Prefeito Pedro, 950                 Centro         56180000Cabrobo        PE0000000000000000                                        000000000000                   
0330001300003Y 0103                                                             211340883000103                                                               YKT0001778082211936912622112022                                                   
03300015000000000000005                                                                                                                                                                                                                         
03399999000000000000001000007                                                                                                                                                                                                                   