03300000        2011340883000103000000000000000                         BITMAX TELECON                Banco Santander                         100000000      000000040                                                                          
03300001R01  030 0000000000000000                    000000000000000                                                                                                                   0000000000000000                                         
0330001300000P 000000000000000000000000000  0000000000000 00                 0000000000000000000010000000 00 00000000000000000000000000000000000000000000000000000000000000000000000000000000000000                         0000 0000           
0330002300000Q 001000008948842471WARGAS DELMONDES TEIXEIRA                                                       Centro         56180000Cabrobo        PE0000000000000000                                        000000000000                   
03399995000000000000006                                                                                                                                                                                                                         
03399999000000000000008000000                                                                                                                                                                                                                   